:020000040800F2
:1000000038080020CD0100089F160008451200089E
:100010009D160008D30200089F1900080000000088
:10002000000000000000000000000000A31600080F
:10003000D502000800000000A1160008A51600085F
:10004000E7010008E7010008E7010008E7010008F0
:10005000E7010008E7010008D7020008DD020008F8
:10006000E7010008E7010008E7010008E7010008D0
:10007000E7010008E7010008E7010008E7010008C0
:10008000E7010008E7010008E7010008E7010008B0
:10009000E7010008E7010008E7010008E7010008A0
:1000A000E7010008E7010008E7010008E701000890
:1000B000E7010008E7010008E7010008E701000880
:1000C000E7010008E7010008E7010008E701000870
:1000D000E7010008E7010008E7010008E701000860
:1000E000E7010008E7010008E7010008E701000850
:1000F000E7010008E7010008E7010008E701000840
:10010000E7010008E7010008E7010008E70100082F
:10011000E7010008E7010008E7010008E70100081F
:10012000E7010008E7010008E7010008E70100080F
:1001300000F002F800F03AF80AA090E8000C8244BF
:100140008344AAF10107DA4501D100F02FF8AFF29C
:10015000090EBAE80F0013F0010F18BFFB1A43F0A5
:1001600001031847681E0000881E0000103A24BFD3
:1001700078C878C1FAD8520724BF30C830C144BF0C
:1001800004680C607047000000230024002500264E
:10019000103A28BF78C1FBD8520728BF30C148BFEA
:1001A0000B6070471FB51FBD10B510BD00F058F8AB
:1001B0001146FFF7F7FF01F003FC00F076F803B4F7
:1001C000FFF7F2FF03BC00F07DF80000094880470C
:1001D00009480047FEE7FEE7FEE7FEE7FEE7FEE729
:1001E000FEE7FEE7FEE7FEE704480549054A064B41
:1001F000704700000717000831010008380200208E
:100200003808002038040020380400204FF0000295
:1002100000B5134694469646203922BFA0E80C50FC
:10022000A0E80C50B1F12001BFF4F7AF090728BFD7
:10023000A0E80C5048BF0CC05DF804EB890028BF53
:1002400040F8042B08BF704748BF20F8022B11F07C
:10025000804F18BF00F8012B7047704770477047F8
:10026000754600F02BF8AE4605006946534620F06F
:100270000700854618B020B5FFF7B6FFBDE820405F
:100280004FF000064FF000074FF000084FF0000B52
:1002900021F00701AC46ACE8C009ACE8C009ACE805
:1002A000C009ACE8C0098D46704710B50446AFF3ED
:1002B00000802046BDE81040FFF781BF004870472E
:1002C000D801002001491820ABBEFEE7260002003D
:1002D0007047FEE77047012000F04EB8022000F0A2
:1002E0004BB872B6FEE7000070B5044600F056F950
:1002F0000546601C02D004480078044400F04EF922
:10030000401BA042FAD370BD1800002010B5194C54
:10031000012808D002282CD10221204600F034F90F
:10032000012814D018E00121204600F02DF9012801
:1003300004D101220421204600F02BF9012120469E
:1003400000F022F9002814D1002204210CE001223F
:100350000821204600F01DF90221204600F014F982
:10036000002806D1002208212046BDE8104000F0F8
:1003700010B910BD00100140044910B50A680242CE
:1003800002D00860FFF7C2FF10BD00001404014056
:100390002DE9F84FDFF8C891002409F1040A0AF1A9
:1003A000040B23460F270BF1040ED1E00125A540D5
:1003B00006EA0502AA4276D1DFF8A8C14E68A6EB8C
:1003C0000C0866452BD00DDC032E34D005DC36B38B
:1003D000012E19D0022E2FD11BE0112E16D0122E75
:1003E0002AD119E0B8F5881F19D006DCB8F5803F8E
:1003F00015D0B8F5801F1FD111E0B8F5001F0ED041
:10040000B8F5041F18D10AE0CB6815E0CB681B1DB6
:1004100012E0CB6808330FE0CB680C330CE08B683C
:100420002BB1012B4FF0080303D0456104E00423F6
:1004300002E0056100E00023FF2A01D8064601E042
:1004400000F104064FEA840501D9A5F12005D6F88C
:10045000008007FA05FC28EA0C0803FA05F548EACB
:100460000508C6F800804D68ED0070D53E4DAE69B8
:1004700046F00106AE61AD6924F0030605F0010502
:1004800000953A4D06EB050CDCF80850A607360F30
:1004900007FA06F825EA0805DFF8D480404503D1BD
:1004A0004FF0000825E052E0DFF8C880404502D157
:1004B0004FF001081DE0DFF8C080404502D14FF049
:1004C000020816E0DFF8B480404502D14FF003087F
:1004D0000FE0DFF8AC80404502D14FF0040808E09F
:1004E000DFF8A080404502D14FF0050801E04FF051
:1004F000060808FA06F848EA0508CCF808804D68AE
:10050000D9F80060ED034D4601D5164300E096434F
:100510002E604D68DAF80060AD03554601D51643EC
:1005200000E096432E604D68DBF80060ED025D460A
:1005300001D5164300E096432E604D68DEF800605A
:10054000AD02754601D5164300E096432E60641C4B
:100550000A681646E2407FF429AFBDE8F88F000034
:100560000004014000001110001002400000014092
:1005700000080140000C014000100140001401403F
:1005800000180140001C01408068084000D0012094
:1005900070470AB1016170470904FBE701488068B0
:1005A000704700001800002002488168027811445A
:1005B0008160704718000020074810B5016841F0BD
:1005C00010010160032000F075F80F2000F006F81C
:1005D00000F024F8002010BD0020024070B50D4D41
:1005E00004464FF47A712878B1FBF0F00A490968A3
:1005F000B1FBF0F000F0CCFA48B9102C07D2002281
:100600002146501E00F036F800206C6070BD0120BD
:1006100070BD000018000020240000200C4808B520
:10062000816941F001018161816901F0010100915D
:10063000C16941F08051C161C06900F080500090F3
:100640000448416821F0E06141F00071416008BD5B
:100650000010024000000140002809DB00F01F02EA
:10066000012191404009800000F1E020C0F8001114
:1006700070470000F0B40E4B1B680C46C3F3022316
:10068000C3F10705042D00D90425191D072901D23E
:10069000002300E0DB1E012606FA05F1491E214079
:1006A00099409E40761E16403143F0BC01F078B967
:1006B0000CED00E0064900F0070208684FF6FF0362
:1006C000184040EA0220034A1043086070470000C7
:1006D0000CED00E00000FA052DE9F0470F4605009B
:1006E00061D0434E306800F00700B84209D230684C
:1006F00020F0070038433060306800F00700B8424F
:1007000051D128683B4C810712D5400703D560685A
:1007100040F4E06060602878000703D5606840F42A
:10072000605060606068A96820F0F0000843606075
:100730002878C00728D06868012810D021680228CE
:1007400010D0890700292EDA616821F003010143E6
:100750006160FFF723FF804641F288390DE0216890
:100760008903EFE78901EDE7FFF718FFA0EB080128
:10077000494502D90320BDE8F0876068696800F048
:100780000C00B0EB810FEFD1306800F00700B842E9
:100790000BD9306820F0070038433060306800F033
:1007A0000700B84201D00120E5E72878400705D5C9
:1007B0006068E96820F4E06008436060287800071A
:1007C00006D56068296920F4605040EAC100606085
:1007D00000F018F86168084AC1F30311515CC84081
:1007E0000649086006480068FFF7F8FE0020C2E7E7
:1007F0000020024000100240BC1F0008240000201E
:100800001C00002012A185B00FC98DE80F0014A0B4
:10081000144A006804905168134801F00C03042B3B
:1008200010D0082B0ED1C1F38343C9031DF8030078
:100830000AD5516804AAC1F34041515C0A4A5043A9
:10084000B0FBF1F005B0704708494843FAE70000F3
:1008500002030405060708090A0B0C0D0E0F101001
:10086000010200000010024000127A0000093D0061
:100870002DE9F84F040070D02078C04DC00749D052
:100880006868C0F38100012807D06868C0F3810060
:10089000022809D16868C00306D52868800339D5C5
:1008A00060680028E7D035E06068B0F5803F0BD085
:1008B00010B1B0F5A02F11D0286820F48030286046
:1008C000286820F4802002E0286840F48030286006
:1008D000606890B1FFF762FE06460AE0286840F4BF
:1008E00080202860F0E700BFFFF758FE801B6428D7
:1008F00073D828688003F7D50CE0FFF74FFE064653
:1009000005E000BFFFF74AFE801B6428F0D8286886
:100910008003F7D420789A4E80074FF001094FF0FA
:10092000000839D5686810F00C0F07D06868C0F36C
:100930008100022809D16868C00306D428688007AE
:1009400014D52069012808D110E02069B0B1C6F89B
:100950000090FFF723FE074605E00AE1FFF71EFEC1
:10096000C01B0228C4D828688007F7D528686169A9
:1009700020F0F80040EAC10028600DE0C6F80080D1
:10098000FFF70CFE074604E0FFF708FEC01B022835
:1009900023D828688007F7D4207800072CD5794819
:1009A000A169D9B1C0F80090FFF7F8FD074604E04F
:1009B000FFF7F4FDC01B02280FD8686A8007F7D53F
:1009C00071484FF4FA510068B0FBF1F0009000BF9D
:1009D0000098411E0091FAD20EE080E0C0F800803D
:1009E000FFF7DCFD074604E0FFF7D8FDC01B022837
:1009F00075D8686A8007F7D42078400760D5E86921
:100A00000027C00008D4E86940F08050E861E86938
:100A1000012700F0805000905C480168C90513D49C
:100A20000168834641F480710160FFF7B7FD82469B
:100A300006E000BFFFF7B2FDA0EB0A0064284ED825
:100A4000DBF80000C005F5D5E06801280AD008B140
:100A5000052813D0286A20F001002862286A20F0B7
:100A6000040002E0286A40F001002862E06841F2D8
:100A7000883B98B1FFF792FD82460BE0286A40F070
:100A800004002862EEE700BFFFF788FDA0EB0A0133
:100A900059455AD8286A8007F6D50CE0FFF77EFD45
:100AA000824605E0FFF77AFDA0EB0A0159454CD8D4
:100AB000286A8007F6D41FB1E86920F08050E86109
:100AC000E06988B36968C1F38101022944D0022832
:100AD000C6F8608004D0FFF761FD044638E034E0DA
:100AE000FFF75CFD074604E0FFF758FDC01B022836
:100AF0002BD828688001F7D4206AB0F5803F05D153
:100B00006868A16820F4003008436860D4E90801EF
:100B10000843696821F4741108436860C6F860905E
:100B2000FFF73CFD044606E025E000BFFFF736FD79
:100B3000001B022809D828688001F7D51BE000BFF8
:100B4000FFF72CFD001B022802D90320BDE8F88F17
:100B500028688001F4D40EE00128F7D06868226A82
:100B600000F48031914204D1616A00F4701088422F
:100B700001D00120EAE70020E8E700000010024071
:100B800000004242800442422400002000700040E5
:100B900010B5401EB0F1807F01D3012010BD4FF091
:100BA000E02460610F21601700F0FAFE0020A061D0
:100BB00007202061002010BD10B590F83C20012ACC
:100BC00022D0012280F83C20CA688C6822F440724E
:100BD00022434C6822F4806222430C6822F40062B3
:100BE00022430C6922F4805222434C6922F40052C1
:100BF0002243C969002322F480420A4301684A64FF
:100C000080F83C30002010BD022010BD70B590F877
:100C10003C20012A2CD0012480F83C40022280F89C
:100C20003D2003685A689D6822F070060A683243C6
:100C30005A60104B02689A420ED00F4B9A420BD06A
:100C4000B2F1804F08D00D4B9A4205D00C4B9A421E
:100C500002D00C4B9A4204D1496825F08003194315
:100C6000916080F83D40002180F83C10084670BD3E
:100C7000022070BD002C01400034014000040040FF
:100C800000080040000C004010B5040003D094F8A8
:100C90003D0010B107E0012010BD002084F83C00A9
:100CA000204600F01FF8022084F83D00211D206836
:100CB00000F02AFD012084F8460084F83E0084F804
:100CC0003F0084F8400084F8410084F8420084F832
:100CD000430084F8440084F8450084F83D00002077
:100CE00010BD000008B50C4A01680C48914207D1BC
:100CF000C16941F00201C161C06900F0020009E070
:100D0000074A914207D1816941F4005181618069AC
:100D100000F40050009008BD0004004000100240A4
:100D20000034014070B5044690F83C00012817D00B
:100D3000012584F83C50022084F83D002068826838
:100D400022F0770222F47F4282600868502830D077
:100D50000DDC20284DD005DC98B310283BD148E0AD
:100D6000022070BD302844D0402834D139E06028BA
:100D700028D0702806D0B0F5805F2CD0B0F5005F89
:100D800029D10AE0CB68D1E90121206800F00FFDEC
:100D90002068816841F0770109E0CB68D1E9012141
:100DA000206800F004FD2068816841F48041816082
:100DB00011E0CA684968206800F0CEFD5021206823
:100DC00007E016E0CA684968206800F0D6FD602197
:100DD000206800F0F6FC84F83D50002084F83C00C8
:100DE00070BDCA684968206800F0B6FD40212068DF
:100DF000EFE7226801461046EBE72DE9F0410D468A
:100E0000040003D094F83D0018B108E00120BDE8CB
:100E1000F081002084F83C00204600F041F80220D8
:100E200084F83D002068816844F2070291438160A4
:100E3000211D206800F068FC226890689169166A9C
:100E40002B68AF69034340F20330814341EA072135
:100E5000A868EF6908434FF6FC418843E96840EA17
:100E60000720014328692F6A000140EA0730084340
:100E700069686D6926F0220646EA051529439360E4
:100E80002268906154F8460B0162012004F81F09A2
:100E9000E0752076E0762077A0750020B7E70000A7
:100EA00030B585B000240094019402940394006846
:100EB000404B4149414A984212D1886940F4006050
:100EC0008861886900F400600490886940F004003B
:100ED0008861886900F0040004904FF4407064E079
:100EE000374DB0F1804F1BD0364B984249D1C8697D
:100EF00040F00400C861C86900F0040004908869EB
:100F000040F0080088618869694600F00800049094
:100F1000C02000904FEA0500FFF73AFA05B030BD57
:100F2000C86940F00100C861C86900F00100049080
:100F3000886940F004008861886900F0040004902A
:100F4000886940F0080088618869694600F00800F7
:100F500004904FF4004000901046FFF719FA082063
:100F6000CDE90004694628460294FFF711FA1648B5
:100F7000416821F4407141F0E06141F480714160C9
:100F8000CCE7124B9842C9D1C86940F00800C8614B
:100F9000C86900F008000490886940F00400886186
:100FA000886900F004000490032000906946104610
:100FB000B2E70000002C0140001002400008014090
:100FC000000C01400008004000000140000C0040FF
:100FD00010B586B0002100910191029103911D4A44
:100FE00001681D48022491421ED1816941F004012B
:100FF0008161816901F004010491816941F0080176
:1010000081618069694600F008000490C020CDE944
:10101000000412480394FFF7BBF90320CDE9000454
:1010200069460F48039411E00E4A914210D181693C
:1010300041F0100181618069694600F01000049060
:101040004FF47070CDE9000407480394FFF7A0F94E
:1010500006B010BD0004004000100240000801402E
:10106000000C0140003401400010014070B50446FE
:1010700090F83C000D4601280AD0012084F83C007D
:1010800042B1042A18D0082A2AD00C2A4DD139E0BE
:10109000022070BD206800F09DFB2068816941F04E
:1010A000080181612068816921F004018161206863
:1010B00081692A69114311E0206800F0BBFB2068B8
:1010C000816941F4006181612068816921F4806156
:1010D0008161206881692A6941EA0221816124E0F5
:1010E000206800F0DDFB2068C16941F00801C161A2
:1010F0002068C16921F00401C1612068C1692A69C1
:10110000114311E0206800F0FFFB2068C16941F441
:101110000061C1612068C16921F48061C1612068FA
:10112000C1692A6941EA0221C161002084F83C00BA
:1011300070BD10B5040003D094F83D0010B107E075
:10114000012010BD002084F83C00204600F01EF86D
:10115000022084F83D00211D206800F0D5FA01200E
:1011600084F8460084F83E0084F83F0084F840008C
:1011700084F8410084F8420084F8430084F8440075
:1011800084F8450084F83D00002010BD7047000041
:1011900010B50446022249B104290ED0082913D003
:1011A00094F84100012816D0012010BD94F83E00AB
:1011B0000128F9D184F83E200FE094F83F0001287F
:1011C000F2D184F83F2008E094F840000128EBD1E8
:1011D00084F8402001E084F841200122206800F0DA
:1011E000D9FA13492068134A884201D0904203D1AA
:1011F000436C43F400434364206888420DD090421E
:101200000BD0B0F1804F08D00B49884205D00B4974
:10121000884202D00A49884204D1816801F007015E
:10122000062903D0016841F001010160002010BDD2
:10123000002C014000340140000400400008004040
:10124000000C0040FEE7000070B586B00024304876
:101250000094019402940394816941F0100181612A
:10126000816901F010010491816941F020018161DF
:10127000816901F020010491816941F004018161DB
:10128000816901F004010491816941F008018161E3
:101290008069204E00F00800049000220C213046A6
:1012A000FFF777F9032000901B480225CDE90105DF
:1012B00069463046FFF76CF80C20009001AA012027
:1012C00082E8310069463046FFF762F84FF4F84093
:1012D0008DE8310069461148FFF75AF86802CDE9F8
:1012E0000004694630460294FFF752F80022114686
:1012F0000620FFF7BFF90620FFF7AEF900221146DE
:101300000720FFF7B7F90720FFF7A6F906B070BD71
:10131000001002400010014000003110000C01409C
:1013200010B58CB024216846FEF770FF00241748E2
:10133000099415490A9401603F21C0E901144FF650
:10134000FF71C0E903148021C0E905410320CDE904
:1013500000040120CDE902040494CDE9054007947E
:1013600069460A480894FFF748FD08B1FEF7B9FF3F
:10137000099409A905480A94FFF748FC002801D000
:10138000FEF7AFFF0CB010BD002C0140280000207C
:1013900010B58CB024216846FEF738FF00241648AB
:1013A00009944FF080410A9401603F21C0E9011483
:1013B0004FF6FF71C0E90314802181610320CDE95C
:1013C00000040120CDE902040494CDE9054007940E
:1013D000694609480894FFF710FD08B1FEF781FF40
:1013E000099409A904480A94FFF710FC002801D0C9
:1013F000FEF777FF0CB010BD7000002010B58EB066
:1014000000240794089409940A940B941C216846BC
:101410000C94FEF7FBFE2A48284901603F21C0E9F1
:10142000011440F2F311C0E903148461FFF72CFCAE
:1014300008B1FEF756FF4FF48050079007A92048E7
:10144000FFF770FC08B1FEF74CFF1D48FFF771FE77
:1014500008B1FEF746FF0B940BA919480C94FFF74F
:10146000D5FB08B1FEF73DFF6020CDE900040294F2
:101470000022694612480494FFF7F8FD08B1FEF710
:1014800030FF042269460E48FFF7F0FD08B1FEF771
:1014900028FF082269460A48FFF7E8FD08B1FEF771
:1014A00020FF0C2269460648FFF7E0FD08B1FEF771
:1014B00018FF0348FFF78CFD0EB010BD000400407C
:1014C000B800002010B58CB024216846FEF79EFEBF
:1014D00000241748099415490A9401603F21C0E986
:1014E00001144FF6FF71C0E90314802181610320CC
:1014F000CDE900040120CDE902040494CDE90540C2
:10150000079469460A480894FFF777FC08B1FEF78C
:10151000E8FE099409A906480A94FFF777FB00281A
:1015200001D0FEF7DEFE0CB010BD00000008004048
:101530000001002010B58CB024216846FEF766FE3D
:1015400000241748099415490A9401603F21C0E915
:1015500001144FF6FF71C0E903148021816103205B
:10156000CDE900040120CDE902040494CDE9054051
:10157000079469460A480894FFF73FFC08B1FEF754
:10158000B0FE099409A906480A94FFF73FFB00281A
:1015900001D0FEF7A6FE0CB010BD0000000C00400C
:1015A0004801002010B596B000240F9410941194B7
:1015B000129413941C2168461494FEF727FE2021F0
:1015C00007A8FEF723FE3448324901603F21C0E9F5
:1015D000011440F2F311C0E9031444618461FFF780
:1015E00053FB08B1FEF77DFE4FF480500F900FA91A
:1015F0002948FFF797FB08B1FEF773FE2648FFF76F
:1016000098FD08B1FEF76DFE139413A922481494B7
:10161000FFF7FCFA08B1FEF764FE6020CDE9000494
:101620000294039404940594002269461A4806948F
:10163000FFF71CFD08B1FEF754FE04226946164868
:10164000FFF714FD08B1FEF74CFE08226946124868
:10165000FFF70CFD08B1FEF744FE0C2269460E4868
:10166000FFF704FD08B1FEF73CFE079408940994C7
:101670004FF400500A94CDE90B4007A906480E9498
:10168000FFF79AFA08B1FEF72CFE0348FFF7A0FC1B
:1016900016B010BD0034014090010020FEE7FEE7C7
:1016A00070477047FEF780BF30B58FB0282168467D
:1016B000FEF7ACFD14210AA8FEF7A8FD01210804DD
:1016C000CDE900100024029402250491CDE90750D1
:1016D0004FF4E01009906846FFF7CAF808B172B6F7
:1016E000FEE70F20CDE90A054FF48060CDE90C40FC
:1016F00002210AA80E94FEF7EFFF002801D072B66F
:10170000FEE70FB030BD7047F0B502681C4B1D4DB1
:101710001D4E1E4F1E4C4FF0804C984209D0A042E7
:1017200007D0604505D0A84203D0B04201D0B842EE
:1017300004D122F0700E4A6842EA0E02984209D0A3
:10174000A04207D0604505D0A84203D0B04201D0E6
:10175000B84203D122F44075CA682A434D6922F089
:1017600080022A4302608A68C2620A6882629842E2
:1017700001D0A04201D10969016301214161F0BD9D
:10178000002C01400004004000080040000C004014
:101790000034014010B501F01F030121046A994093
:1017A0008C430462016A9A401143016210BD10B576
:1017B000846842EA032224F47F440A43224382607D
:1017C00010BD826822F070020A4342F00701816076
:1017D00070470000F0B5026A22F001020262036A5B
:1017E00042688469124E24F073050C682C4323F080
:1017F00002058B682B430D4DA84201D0B04205D1A4
:1018000023F00807CB683B4323F00403A84201D030
:10181000B04205D14D6922F4407215438A692A43CA
:1018200042608461496841630362F0BD002C01405D
:1018300000340140F0B5026A22F010020262026A2E
:10184000436884690D6824F4E64444EA05248D68FD
:1018500022F0200242EA05120F4D104EA84201D09C
:10186000B04206D1CF6822F0800242EA071222F08D
:101870004002A84201D0B04207D14D6923F4406331
:1018800043EA85038D6943EA8503436084614968BF
:1018900081630262F0BD0000002C01400034014071
:1018A000F0B5026A22F480720262026A4368C46977
:1018B00022F4007224F073050C68124E2C438D68DC
:1018C00042EA05220E4DA84201D0B04206D1CF68AF
:1018D00022F4006242EA072222F48062A84201D088
:1018E000B04207D14D6923F4405343EA05138D6993
:1018F00043EA05134360C4614968C1630262F0BDF5
:10190000002C01400034014030B5026A22F48052BC
:101910000262046A4268C3690D6823F4E64343EA3D
:1019200005238D6824F4005444EA0534084DA84288
:1019300002D0084DA84204D14D6922F4804242EA07
:1019400085124260C36149680164046230BD0000D1
:10195000002C01400034014010B5036A046A24F0F1
:1019600001040462846924F0F00444EA021423F0C0
:101970000A020A438461026210BD10B5036A23F0B3
:10198000100303628369046A23F4704343EA02325A
:1019900024F0A00343EA01118261016210BDFEE759
:1019A0000907090E002804DB00F1E02080F800148C
:1019B000704700F00F0000F1E02080F8141D704720
:1019C000FEF7FAFDFFF770FEFFF73EFCFFF7A8FCFD
:1019D000FFF7DEFCFFF712FDFFF774FDFFF7AAFD2E
:1019E000FFF7E0FD0021F748FFF7D2FB0421F5489F
:1019F000FFF7CEFB0821F348FFF7CAFB0C21F148A3
:101A0000FFF7C6FB0021F048FFF7C2FB0421EE48B8
:101A1000FFF7BEFB0821EC48FFF7BAFB0C21EA48B0
:101A2000FFF7B6FBE94D4FF4806841462846FEF7C4
:101A3000ABFDE74E40B2DC27F07006F10E04012842
:101A400001D008B335E0012204212846FEF7A1FDAC
:101A5000012208212846FEF79CFD002507EB8500A2
:101A600020806080A080E080D9480E3000F064FAC9
:101A70002320FEF739FC6D1C6DB2152DEEDB4FF403
:101A80004870FEF731FC14E05FF0000505EB4500FF
:101A900007EB400020806080A080E080CC480E30C2
:101AA00000F04AFA1920FEF71FFC6D1C6DB2152DCF
:101AB000ECDBC84D4FF4005B4FF4006A4FF48049F3
:101AC00041462846FEF760FDC14E5146083630704B
:101AD0002846FEF759FD70704FF480512846FEF7F6
:101AE00053FDB07059462846FEF74EFDF07049464A
:101AF0002846FEF749FDB64F40B2307197F9031002
:101B0000012902D000297DD0FFE196F9003023B9E8
:101B10007178012901D1B178E9B396F9011021B9A1
:101B2000B278012A01D1F278AAB396F902202AB933
:101B300096F803C0BCF1010F00D160B343B901298D
:101B400006D1012A04D196F803C0BCF1000F2BD0B6
:101B500039B9012A05D196F803C0BCF1010F00D1B3
:101B6000C8B14BB9012907D1012A05D196F803C0A4
:101B7000BCF1010F00D170B1012B7CD139B932B960
:101B800096F803C0BCF1000F01D101280CD0012947
:101B900008D13AB900E007E096F803C0BCF1000FA5
:101BA00000D108B179B38BE0FEF7F8FC43F2B061E5
:101BB0007860884213D97878012802D13878401C9F
:101BC000387097F90000052809DD4FF496702080E1
:101BD0006080A080E0807E480E3000F0ADF97C4847
:101BE0006FF4FA514068084440F69F7188425DD214
:101BF00077484178012902D10178491C0170744865
:101C0000007801E09BE054E003284FD1FA202080C7
:101C10006080A080E0806E480E3000F08DF9642076
:101C2000FEF762FB47464E4602E00320FEF75CFBF0
:101C300031462846FEF7A8FC012805D0594628461B
:101C4000FEF7A2FC0128F0D139462846FEF79CFC9D
:101C5000012805D051462846FEF796FC0128E4D11C
:101C60004FF49670208060806FF48970A080E080CF
:101C700057480E3000E02FE000F05EF94FF4967008
:101C8000FEF732FB52488178491C817002E0032044
:101C9000FEF72AFB39462846FEF776FC0128F6D1E6
:101CA00031462846FEF770FC0128F0D10120484952
:101CB0003EE196F803C0BCF1010F01D1012802D02A
:101CC000012902D008E096201AE096F803C0BCF182
:101CD000000F01D1012801D033B10CE04FF4967010
:101CE00020806080962019E0012A04D1F678012E28
:101CF00001D1012802D0012B07D00BE06FF48970CD
:101D0000208060804FF4967008E0012902D1012AFA
:101D100000D168B14FF4967020806080A080E08090
:101D20002B480E3000F008F9002038707870ECE095
:101D30004FF49670208060806FF48970EEE796F91A
:101D4000001021B97278012A01D1B278C2B396F994
:101D5000013023B9B278012A01D1F27882B396F921
:101D600002201AB9F778012F00D148B329B9012B05
:101D700003D1012A01D1F77817B32BB9012A03D176
:101D8000F778012F00D1D8B139B9012B05D1012A3B
:101D900003D1F778012F00D190B1012905D123B9E2
:101DA0001AB9F7780FB9012816D0B9BB2BB922B9E7
:101DB000F778012F01D101280ED0012A7ED087E0CB
:101DC0000AE00000B800002090010020001001404F
:101DD00000000020000C0140FEF7E0FB554E41F2F0
:101DE00088318842706029D27078012802D1307819
:101DF000401C30703078052820D16FF4937020801B
:101E000060804FF4AA70A080E0804A480E3000F055
:101E100093F8FA20FEF768FA474603E058E00520F9
:101E2000FEF762FA39462846FEF7AEFB0128F6D1E6
:101E300049462846FEF7A8FB0128F0D1716843F215
:101E4000B06081423CD97078012802D13078401CC2
:101E500030703078052833D14FF4AA772780678017
:101E60003448A780E7800E3000F066F89620FEF731
:101E70003BFA6FF49370208060802E48A780E78043
:101E80000E3000F059F84B20FEF72EFA4F4602E0D4
:101E90000520FEF729FA4FF480512846FEF774FB1F
:101EA0000028F5D141462846FEF76EFB0128EFD108
:101EB00039462846FEF768FB012800E003E0E7D139
:101EC0000120707021E0F678012E01D1012802D0A6
:101ED000012907D00BE06FF49370208060804FF4ED
:101EE000AA701CE0012B02D1012A00D188B14FF465
:101EF000AA7020806080A080E0800E480E3000F044
:101F00001BF80C480021017041700520FEF7ECF928
:101F1000D6E54FF4AA70208060806FF49370A080A3
:101F2000E08004480E3000F007F8024900200870F5
:101F30004870EAE70000002010B51E4AB0F90040E2
:101F400000211368002C0BDB99631468B0F9023090
:101F500023641468B0F9003063631268D1630AE047
:101F600064429C631368196413685963B0F90230C2
:101F700012685B42D363B0F904300F4A002B0ADBCE
:101F80001468A3631368B0F906001864106841630D
:101F90001068C16310BD1368996313681964B0F9C0
:101FA0000410136849425963B0F9060011684042B1
:101FB000C86310BD90010020B800002000000000A0
:101FC000000000000102030406070809EC1F0008D6
:101FD00000000020280000006C0100081420000808
:101FE0002800002010080000880100080000000000
:101FF00000000000000000000000000000000000E1
:1020000000000000010000001000000000000000BF
:042010000024F400B4
:0400000508000131BD
:00000001FF
